:020000040800F2
:100000000000022045020008950200089502000841
:100010009502000895020008950200080000000003
:100020000000000000000000000000009502000831
:1000300095020008000000009502000895020008E3
:100040009502000895020008950200089502000834
:100050009502000895020008950200089502000824
:100060009502000895020008950200089502000814
:100070009502000895020008950200089502000804
:1000800095020008950200089502000895020008F4
:1000900095020008950200089502000895020008E4
:1000A00095020008950200089502000895020008D4
:1000B00095020008950200089502000895020008C4
:1000C00095020008950200089502000895020008B4
:1000D00095020008950200089502000895020008A4
:1000E0009502000895020008950200089502000894
:1000F0009502000895020008950200089502000884
:100100009502000895020008950200089502000873
:100110009502000895020008950200089502000863
:100120009502000895020008950200089502000853
:100130009502000895020008950200089502000843
:100140009502000895020008950200089502000833
:100150009502000895020008950200089502000823
:100160009502000895020008950200089502000813
:1001700095020008950200089502000800000000A2
:08018000950200089502000839
:1001880010B5054C237833B9044B13B10448AFF3C9
:1001980000800123237010BD000000200000000033
:1001A800E00200080C4B43B10C480D4910B5AFF301
:1001B80000800C48036823B910BD0A48036833B9A6
:1001C8007047094B002BF7D0BDE810401847064B85
:1001D800002BF5D0184700BF00000000E00200081F
:1001E80004000020000000200000000001207047EB
:1001F8000F49D1F8883043F47003C1F888300D4BAB
:100208001A6842F001021A60002098601A6822F009
:10021800847222F480321A60074A5A601A6822F4FB
:1002280080221A60D8604FF000638B60704700BF6F
:1002380000ED00E00038024010300024DFF834D030
:10024800002103E00C4B5B58435004310B480C4B26
:1002580042189A42F6D30B4A02E0002342F8043BC4
:10026800094B9A42F9D3FFF7C3FF00F011F8FFF7E3
:10027800BDFF7047000002200003000800000020B6
:1002880000000020000000201C000020FEE7000005
:1002980070B50D4E0D4CA41BA4100025A54209D124
:1002A8000B4E0C4C00F018F8A41BA4100025A54216
:1002B80005D170BD56F8253098470135EEE756F858
:1002C800253098470135F2E7F8020008F8020008DF
:1002D800F8020008FC020008F8B500BFF8BC08BC2A
:1002E8009E467047F8B500BFF8BC08BC9E467047EC
:0402F800AD0100084C
:0402FC00890100086C
:0400000508000245A8
:00000001FF
